:10000000E2C0000005C1000003C1000001C1000002
:10001000FFC00000FDC00000FBC00000F9C00000F0
:10002000F7C00000F5C00000C8C400003FC50000D4
:10003000EFC00000EDC00000EBC00000E9C0000010
:10004000E7C00000E5C00000E3C00000E1C0000020
:10005000DFC00000DDC00000DBC000000DC40000F8
:10006000D7C00000D5C00000D3C00000D1C0000040
:10007000CFC00000CDC00000CBC00000C9C0000050
:10008000C7C00000C5C00000C3C00000C1C0000060
:10009000BFC00000BDC00000BBC00000B9C0000070
:1000A000B7C00000B5C00000B3C000004F0331036B
:1000B00071037103710357036103710369037103D2
:1000C0003D03450301230223042308238023012940
:1000D0000229042908294026802640298029102346
:1000E00020234023802F402F202F102F022F012F5D
:1000F00010292029402C00010000A7011200020055
:100100000064014300030000600104010309044688
:100110000118020309042E01160303090420010C2F
:100120000C033100320033003400350000001603A8
:100130005500530042002000530065007200690022
:1001400061006C00000018035400650065006E003B
:10015000730079006400750069006E006F00000094
:100160000403090409024300020100C0320904002B
:100170000001020201000524001001052401000114
:100180000424020605240600010705820308004036
:1001900009040100020A00000007050302400000F4
:1001A000070584024000001201000202000020C086
:1001B0001683040001010203010001C1020180361F
:1001C00001813600A40211241FBECFEFDAE0DEBFAA
:1001D000CDBF11E0A0E0B1E0EAEBF1E102C0059093
:1001E0000D92A63AB107D9F721E0A6EAB1E001C025
:1001F0001D92AB3BB207E1F710E0C3EED0E003C0C5
:100200002197FE01BED7C23ED107D1F7B4D5D3C7DF
:10021000F7CECF93DF9380919C0190919D01209127
:100220009A0130919B01821B930B4E9668E170E01E
:1002300095D790939D0180939C0180919801EFD177
:1002400080919601ECD180919401E9D18091920145
:10025000E6D1569AC3E0D0E05E9864EF71E080E0AA
:1002600090E04AD35E9A64EF71E080E090E044D37E
:10027000219791F764EF71E080E090E03DD35E98C4
:10028000DF91CF9108954F925F926F927F928F92FC
:100290009F92AF92BF92CF92DF92EF92FF920F9315
:1002A0001F93CF93DF935C01EB0169018CE0E82E93
:1002B000E49E8001E59E100D11240E5F1E4FF80193
:1002C000808191812CE3F22EF89EB001F99E700D91
:1002D000112482819381680F791F072E000C880BEF
:1002E000990B4DD62B013C01FA9CB001FB9C700D83
:1002F0001124C60FD71FBE01DD0F880B990B3FD607
:10030000A30192013CD54B015C01EC9CE001ED9C0A
:10031000D00D1124CE5FDE4F88819981F89EB00107
:10032000F99E700D11248A819B81680F791F072E19
:10033000000C880B990B23D6A301920120D59B01B9
:10034000AC01C501B40180D56B017C01F801A4802A
:10035000B5806C817D816A197B09072E000C880BA2
:10036000990B0DD6A701960196D62B013C01B5013C
:10037000BB0C880B990B03D69B01AC01C301B201E6
:10038000FFD4CAD5809198015BD1F801A680B780CF
:100390006E817F816A197B09072E000C880B990BEF
:1003A000EED5A701960177D62B013C01B501BB0C18
:1003B000880B990BE4D59B01AC01C301B201E0D4D9
:1003C000ABD5809196013CD1F801A084B1846885B9
:1003D00079856A197B09072E000C880B990BCFD5FC
:1003E000A701960158D62B013C01B501BB0C880B27
:1003F000990BC5D59B01AC01C301B201C1D48CD509
:10040000809194011DD1F801028513858A859B8511
:10041000801B910BBC01990F880B990BB0D5A701DC
:10042000960139D66B017C01B801110F880B990B2D
:10043000A6D59B01AC01C701B601A2D46DD58091B0
:100440009201DF91CF911F910F91FF90EF90DF907C
:10045000CF90BF90AF909F908F907F906F905F9064
:100460004F90EEC0EF92FF920F931F93CF93DF93C5
:100470002091000130910101A90141505109ECE0A6
:10048000E29F7001E39FF00C1124A0E0B0E020E0B7
:1004900030E057FD15C0FD01EE0DFF1DEE5FFE4F74
:1004A0008F010C501109E80108811981801791070B
:1004B00074F03A970190F081E02D6E177F073CF0C1
:1004C000DF91CF911F910F91FF90EF90DCCE1C97A1
:1004D0009A0141505109DDCFCF93DF9380919C0168
:1004E00090919D0148974CF56091AE017091AF01DC
:1004F00080919C0190919D016C337105A4F4B2DF51
:10050000CCE3D0E068EE73E080E090E0F5D1219795
:10051000C9F78091AE019091AF0101969093AF0120
:100520008093AE01E1CF1092AF011092AE0101961F
:1005300090939D0180939C01D1CF10929D011092C8
:100540009C01DF91CF910895E6EAF1E08091980156
:100550009091990191838083809196019091970168
:1005600093838283809194019091950195838483F4
:1005700080919201909193019783868308951DBA8B
:10058000109268001CBC10BE1FBA10927A00109224
:100590006E0010926F001092710010927200109213
:1005A000C900ECEBF0E0108214B817B81AB81DB807
:1005B00010BA108215B818B81BB81EB811BA089531
:1005C000F894E1E6F0E020E82083108283E084BD27
:1005D00085BDEEE6F0E080818160808381E08093DC
:1005E000800092E09093810080939000909391001E
:1005F0009093C00094E09093C1008093C2008093D8
:10060000C3001092C40086E880937A0020937B0098
:1006100010927E0010927D00AED1789408958931B9
:1006200070F4E4ECF0E0880FE80FF11D9591E4918F
:10063000F0E08FB7F8942181922B91838FBF0895BA
:100640000F931F93CF93C82F8B01E9DF8C2F90E07E
:10065000FC013497EC30F10508F043C0EA5AFF4F33
:1006600090C50115110521F4589884B58F7D03C0FC
:1006700008BD84B5806284BD3CC01093890000939E
:10068000880080918000806807C010938B000093E1
:100690008A00809180008062809380002AC010933D
:1006A0008D0000938C00809180008860F5CF1093BE
:1006B000990000939800809190008068809390004A
:1006C00018C00093CF008091C00080688093C00064
:1006D00010C00093D2008091C20088608093C20055
:1006E00008C0EC2FF0E00038110514F40CD001C064
:1006F00004D0CF911F910F910895E93150F4EE0F7E
:10070000E657FC4F0994E93120F4EE0FE454FC4F16
:1007100009940895289A0895299A08952A9A08957F
:100720002B9A08952F9A6AC0589A58C0599A0895DA
:100730005A9A08955B9A0895469A66C0479A6AC085
:100740005E9A08955F9A6CC02C9A08952D9A4AC0BB
:100750002E9A4EC08F9A08958E9A08958D9A089574
:100760008C9A0895899A0895889A08955C9A0895B4
:100770005D9A0895769A089528980895299808957D
:100780002A9808952B9808952F9838C0589826C015
:10079000599808955A9808955B980895469834C0DA
:1007A000479838C05E9808955F983AC02C9808958D
:1007B0002D9818C02E981CC08F9808958E98089573
:1007C0008D9808958C98089589980895889808952B
:1007D0005C9808955D98089576980895E4B5EF7D46
:1007E000E4BD0895E0918000EF77E09380000895E4
:1007F000E0918000EF7DE09380000895E09180001B
:10080000E77FE09380000895E0919000EF77E09318
:1008100090000895E091C000EF77E093C000089544
:10082000E091C200E77FE093C2000895F89484B796
:10083000877F84BF80916000806180936000109208
:10084000600080E29EE40197F1F781E08093E00090
:1008500080E28093D80080E69AEE0197F1F78FDE70
:100860000C94003FFFCFF8948ADE80E69AEE019761
:10087000F1F70C940000FFCF8F938FB78F93809187
:10088000B0018D5F8D37D0F48093B0018091B101BC
:100890008F5F8093B101D8F08091B2018F4F809328
:1008A000B201A8F08091B3018F4F8093B30178F02B
:1008B0008091B4018F4F8093B40109C08D5780930C
:1008C000B0018091B1018E5F8093B10128F78091D2
:1008D000B5018C5F8093B50158F08091B6018F4FC0
:1008E0008093B60128F08091B7018F4F8093B701B4
:1008F0008F918FBF8F911895CF92DF92EF92FF92D9
:100900006B017C0119D09B01C114D104E104F104F5
:1009100071F012D0621B730B683E7340A8F381E044
:10092000C81AD108E108F10828513C4FEDCFFF90DB
:10093000EF90DF90CF9008950FB6F89466B515B29A
:100940007091B5018091B6019091B7010FBE10FE74
:1009500005C06F3F19F07C5F8F4F9F4F112400241B
:10096000660F001C660F001C702908958091E80036
:1009700080FFFCCF08958091D80087FF02C085FFDB
:100980001BC081E08093D70080EA8093D80082E189
:1009900089BD09B400FEFDCF80E98093D800109294
:1009A000E0001092BD011092BC011092BB011092A8
:1009B000E1008DE08093E20008951F920F920FB640
:1009C0000F9211242F933F934F935F936F937F93D5
:1009D0008F939F93AF93BF93EF93FF939091E10019
:1009E0001092E10093FF11C01092E90081E0809322
:1009F000EB001092EC0082E28093ED0088E080939F
:100A0000F0001092BD011092BB0192FF1DC08091B9
:100A1000BD018823C9F08091BA01882359F0815023
:100A20008093BA01811106C084E08093E9008AE3D3
:100A30008093E8008091B901882331F08150809340
:100A4000B901811101C0F2DE90FF0CC080E18093FA
:100A5000E2001092BD0181E08093BC0180EA8093A6
:100A6000D80019BC8091BC01882379F094FF0DC097
:100A700082E189BD09B400FEFDCF80E98093D800F2
:100A80008DE08093E2001092BC01FF91EF91BF9145
:100A9000AF919F918F917F916F915F914F913F9116
:100AA0002F910F900FBE0F901F9018951F920F92CD
:100AB0000FB60F921124EF92FF920F931F932F9373
:100AC0003F934F935F936F937F938F939F93AF93D6
:100AD000BF93CF93EF93FF931092E9008091E800CA
:100AE00083FF30C1C091F1008091F100E090F100EE
:100AF000F090F1000091F1001091F1002091F100CF
:100B00003091F10092EF9093E800863009F03FC0F9
:100B100086E0E6EFF0E0459155914E155F0511F046
:100B2000359615C0459155914017510711F03396F0
:100B30000EC04591559184912F3F310519F010F069
:100B40002FEF30E0281708F4822F3EEF08C08150C5
:100B500011F7F8C0891B3093E8008823A9F0909121
:100B6000E800292F2570D9F392FDEFC0982F81322C
:100B700008F090E2292F222369F3FA01459140936E
:100B8000F100AF012150F7CF903249F3DEC085303C
:100B900049F48EEF8093E800E9DE8E2D8068809323
:100BA000E300D3C0893001F5C111CCC0E092BD0192
:100BB0001092BB011092BA018EEF8093E80081E0A1
:100BC000E9EBF1E08093E90095919093EB00992394
:100BD00031F095919093EC0095919093ED008F5F9B
:100BE000853081F78EE1A9C0883049F4C03809F01A
:100BF000A9C0BCDE8091BD018093F1007DC081322F
:100C000079F4C13A09F09EC0B1DEEEE9F1E087E087
:100C10008E0F90819093F10031968E13FACF6CC0B5
:100C2000803209F047C0C13209F08CC08091E800E1
:100C300082FFFCCFEEE9F1E087E08E0F9091F100AA
:100C4000908331968E13FACF8BEF8093E8008EEF6E
:100C50008093E80030919E0140919F018091A00116
:100C60002091A10190E0A0E0B0E0DC019927882765
:100C7000942B832BB22B86389105A105B10521F465
:100C80008FE08093B90161C086399105A105B10556
:100C900009F05BC084E08093E9009FEF8091EE0053
:100CA000837039F09093E8008091E80082FDFCCFDA
:100CB000F5CFD9DD823231F4C13209F043C0E09280
:100CC000BB0104C0833221F4C132E1F54FDE14C010
:100CD000811116C04BDEC23851F40093E9008091B7
:100CE000EB0085FB882780F91092E90001C080E0C5
:100CF0008093F1001092F1008EEF8093E80025C000
:100D0000982F9D7F9130F1F4C230E1F4EF28D1F4B7
:100D10000F779FEF900F9630A8F49EEF9093E80026
:100D20000093E900833071F089E18093EB0081E06A
:100D300090E001C0880F0A95EAF78093EA001092CC
:100D4000EA0003C081E28093EB00FF91EF91CF9125
:100D5000BF91AF919F918F917F916F915F914F91D3
:100D60003F912F911F910F91FF90EF900F900FBE29
:100D70000F901F90189524DC4CDAAEDBFECF505854
:100D8000BB27AA270ED04DC13ED130F043D120F071
:100D900031F49F3F11F41EF433C10EF4E095E7FBEC
:100DA00029C1E92F4FD180F3BA176207730784076F
:100DB000950718F071F49EF567C10EF4E0950B2EBF
:100DC000BA2FA02D0B01B90190010C01CA01A0019D
:100DD0001124FF27591B99F0593F50F4503E68F1F8
:100DE0001A16F040A22F232F342F4427585FF3CF39
:100DF000469537952795A795F0405395C9F77EF40A
:100E00001F16BA0B620B730B840BBAF09150A1F052
:100E1000FF0FBB1F661F771F881FC2F70EC0BA0FD8
:100E2000621F731F841F48F4879577956795B79560
:100E3000F7959E3F08F0B3CF9395880F08F0992758
:100E4000EE0F9795879508950CD0EBC0E3D040F056
:100E5000DAD030F021F45F3F19F0CCC0511115C148
:100E6000CFC0F0D098F39923C9F35523B1F3951B64
:100E7000550BBB27AA2762177307840738F09F5FBB
:100E80005F4F220F331F441FAA1FA9F333D00E2E2A
:100E90003AF0E0E830D091505040E695001CCAF797
:100EA00029D0FE2F27D0660F771F881FBB1F26175C
:100EB00037074807AB07B0E809F0BB0B802DBF012F
:100EC000FF2793585F4F2AF09E3F510568F092C06C
:100ED000DCC05F3FECF3983EDCF386957795679531
:100EE000B795F7959F5FC9F7880F911D96958795E0
:100EF00097F90895E1E0660F771F881FBB1F6217FF
:100F000073078407BA0720F0621B730B840BBA0BBC
:100F1000EE1F88F7E095089504D06894B111B5C02C
:100F2000089598D088F09F5790F0B92F9927B7511E
:100F3000A0F0D1F0660F771F881F991F1AF0BA959D
:100F4000C9F712C0B13081F09FD0B1E008959CC0C4
:100F5000672F782F8827B85F39F0B93FCCF3869593
:100F600077956795B395D9F73EF4909580957095F0
:100F700061957F4F8F4F9F4F0895E89409C097FB6D
:100F80003EF490958095709561957F4F8F4F9F4F60
:100F90009923A9F0F92F96E9BB279395F6958795A4
:100FA00077956795B795F111F8CFFAF4BB0F11F467
:100FB00060FF1BC06F5F7F4F8F4F9F4F16C088230E
:100FC00011F096E911C0772321F09EE8872F762F44
:100FD00005C0662371F096E8862F70E060E02AF085
:100FE0009A95660F771F881FDAF7880F9695879571
:100FF00097F9089597F99F6780E870E060E0089599
:101000009FEF80EC089500240A9416161706180620
:101010000906089500240A941216130614060506FC
:101020000895092E0394000C11F4882352F0BB0F8D
:1010300040F4BF2B11F460FF04C06F5F7F4F8F4FF0
:101040009F4F089557FD9058440F551F59F05F3F2B
:1010500071F04795880F97FB991F61F09F3F79F0DA
:1010600087950895121613061406551FF2CF46955C
:10107000F1DF08C0161617061806991FF1CF8695DE
:101080007105610508940895E894BB2766277727C2
:10109000CB0197F908950BD0C4CFB5DF28F0BADFA4
:1010A00018F0952309F0A6CFABCF1124EECFCADFFD
:1010B000A0F3959FD1F3950F50E0551F629FF0016B
:1010C000729FBB27F00DB11D639FAA27F00DB11DC4
:1010D000AA1F649F6627B00DA11D661F829F22274D
:1010E000B00DA11D621F739FB00DA11D621F839FD4
:1010F000A00D611D221F749F3327A00D611D231FAA
:10110000849F600D211D822F762F6A2F11249F57F7
:1011100050408AF0E1F088234AF0EE0FFF1FBB1F1A
:10112000661F771F881F91505040A9F79E3F5105B9
:1011300070F060CFAACF5F3FECF3983EDCF386956A
:1011400077956795B795F795E7959F5FC1F7FE2B64
:10115000880F911D9695879597F9089597FB072E0F
:1011600016F4009406D077FD08D011D007FC05D006
:101170003EF4909581959F4F0895709561957F4FAE
:101180000895EE0FFF1F0590F491E02D0994AA1B1E
:10119000BB1B51E107C0AA1FBB1FA617B70710F062
:1011A000A61BB70B881F991F5A95A9F78095909594
:0A11B000BC01CD010895F894FFCFB3
:1011BA000C00000000000000000000000000050014
:1011CA001E00000000000000000005002D000800BD
:1011DA0000001000020006000000FF00FF00FF00F0
:1011EA00FF0007000000FF00FF00FF00FF000700EC
:1011FA001E000000FF00FF00FF000F0000000000BB
:10120A00FF00FF00FF000F001E00FF009600B40061
:10121A00C80012000000FF0064008200640015008C
:10122A000000FF000000000001001600000000009E
:10123A00000000000000180000000000000000008C
:10124A0000000C000A00090004000600150000E175
:06125A0000000000080086
:00000001FF
